:100000000C9434000C9446000C9446000C9446006A
:100010000C9446000C9446000C9446000C94460048
:100020000C9446000C9446000C9446000C94460038
:100030000C9446000C9446000C9446000C94460028
:100040000C9446000C9446000C9446000C94460018
:100050000C9446000C9446000C9446000C94460008
:100060000C9446000C94460011241FBECFEFD8E03C
:10007000DEBFCDBF11E0A0E0B1E001C01D92A13014
:10008000B107E1F70E9448000C946A000C9400004C
:10009000CF93DF93CDB7DEB781E690E020E8FC0197
:1000A000208381E690E0FC01108210920001809193
:1000B00000010E945E0080930001F9CFCF93DF938F
:1000C0001F92CDB7DEB789838981895F0F90DF9159
:0800D000CF910895F894FFCFD1
:00000001FF
